{
  "transactions": [
    {
      "hash": "0x447b131fcb5eaa70b272eb5dab3bea1892dd1ca51b1bdda106264bf83e36b660",
      "transactionType": "CALL",
      "contractName": null,
      "contractAddress": "0x610406a24402236d42cabbd8308d46ce9a060f3a",
      "function": "mint(string)",
      "arguments": [
        "QmPSX4ujjarVJDjygtcQeTeWLekP9yDvhdz1cGecrot14b"
      ],
      "transaction": {
        "from": "0x05f3619824a5edca53e55799f0c6bf6fc4e73513",
        "to": "0x610406a24402236d42cabbd8308d46ce9a060f3a",
        "gas": "0x2cec7",
        "value": "0x0",
        "input": "0xd85d3d270000000000000000000000000000000000000000000000000000000000000020000000000000000000000000000000000000000000000000000000000000002e516d50535834756a6a6172564a446a7967746351655465574c656b503979447668647a3163476563726f74313462000000000000000000000000000000000000",
        "nonce": "0x2",
        "chainId": "0xaa36a7"
      },
      "additionalContracts": [],
      "isFixedGasLimit": false
    }
  ],
  "receipts": [
    {
      "status": "0x1",
      "cumulativeGasUsed": "0x9940d9",
      "logs": [
        {
          "address": "0x610406a24402236d42cabbd8308d46ce9a060f3a",
          "topics": [
            "0xddf252ad1be2c89b69c2b068fc378daa952ba7f163c4a11628f55a4df523b3ef",
            "0x0000000000000000000000000000000000000000000000000000000000000000",
            "0x00000000000000000000000005f3619824a5edca53e55799f0c6bf6fc4e73513",
            "0x0000000000000000000000000000000000000000000000000000000000000001"
          ],
          "data": "0x",
          "blockHash": "0x11ae039b8363670f155546cd930f070d6d2f7029b08d574cde86175c6d62f83a",
          "blockNumber": "0x9a8a42",
          "blockTimestamp": "0x6977742c",
          "transactionHash": "0x447b131fcb5eaa70b272eb5dab3bea1892dd1ca51b1bdda106264bf83e36b660",
          "transactionIndex": "0x38",
          "logIndex": "0x9b",
          "removed": false
        }
      ],
      "logsBloom": "0x00100000020000000000000000000000000000000000000000000020000000000000000000000000000000000000000000000000000000000000000000040000000000000000000000000008000000000000000000040000000000000000000000000000020000000000000000000801000000000000000000000010000000000000000000000000000000000000000000000000000000000000000000000000001000000000000000000000000000000000000000000000000000000000000000000002000000000000000000000000000000000000000000000000000060000000000000000000000000010000000000000000000000000000000000000000",
      "type": "0x2",
      "transactionHash": "0x447b131fcb5eaa70b272eb5dab3bea1892dd1ca51b1bdda106264bf83e36b660",
      "transactionIndex": "0x38",
      "blockHash": "0x11ae039b8363670f155546cd930f070d6d2f7029b08d574cde86175c6d62f83a",
      "blockNumber": "0x9a8a42",
      "gasUsed": "0x1eb79",
      "effectiveGasPrice": "0x3c53f0cd",
      "from": "0x05f3619824a5edca53e55799f0c6bf6fc4e73513",
      "to": "0x610406a24402236d42cabbd8308d46ce9a060f3a",
      "contractAddress": null
    }
  ],
  "libraries": [],
  "pending": [],
  "returns": {},
  "timestamp": 1769436204984,
  "chain": 11155111,
  "commit": null
}